{"abi":[{"type":"constructor","inputs":[{"name":"_mailbox","type":"address","internalType":"address"}],"stateMutability":"nonpayable"},{"type":"function","name":"mailbox","inputs":[],"outputs":[{"name":"","type":"address","internalType":"contract IMailbox"}],"stateMutability":"view"},{"type":"function","name":"receiveTokens","inputs":[{"name":"chainSrc","type":"uint256","internalType":"uint256"},{"name":"chainDest","type":"uint256","internalType":"uint256"},{"name":"sender","type":"address","internalType":"address"},{"name":"receiver","type":"address","internalType":"address"},{"name":"sessionId","type":"uint256","internalType":"uint256"}],"outputs":[{"name":"token","type":"address","internalType":"address"},{"name":"amount","type":"uint256","internalType":"uint256"}],"stateMutability":"nonpayable"},{"type":"function","name":"send","inputs":[{"name":"chainSrc","type":"uint256","internalType":"uint256"},{"name":"chainDest","type":"uint256","internalType":"uint256"},{"name":"token","type":"address","internalType":"address"},{"name":"sender","type":"address","internalType":"address"},{"name":"receiver","type":"address","internalType":"address"},{"name":"amount","type":"uint256","internalType":"uint256"},{"name":"sessionId","type":"uint256","internalType":"uint256"}],"outputs":[],"stateMutability":"nonpayable"},{"type":"event","name":"DataWritten","inputs":[{"name":"data","type":"bytes","indexed":false,"internalType":"bytes"}],"anonymous":false},{"type":"event","name":"EmptyEvent","inputs":[],"anonymous":false}],"bytecode":{"object":"0x6080604052348015600e575f5ffd5b50604051610be0380380610be0833981016040819052602b91604e565b5f80546001600160a01b0319166001600160a01b03929092169190911790556079565b5f60208284031215605d575f5ffd5b81516001600160a01b03811681146072575f5ffd5b9392505050565b610b5a806100865f395ff3fe608060405234801561000f575f5ffd5b506004361061003f575f3560e01c80633cd28eb9146100435780639489e65e14610087578063d5438eae1461009c575b5f5ffd5b610056610051366004610703565b6100e0565b6040805173ffffffffffffffffffffffffffffffffffffffff90931683526020830191909152015b60405180910390f35b61009a610095366004610751565b610433565b005b5f546100bb9073ffffffffffffffffffffffffffffffffffffffff1681565b60405173ffffffffffffffffffffffffffffffffffffffff909116815260200161007e565b5f80546040517f93ab0ed40000000000000000000000000000000000000000000000000000000081528291829173ffffffffffffffffffffffffffffffffffffffff909116906393ab0ed490610140908b908a908a908a906004016107bd565b5f60405180830381865afa15801561015a573d5f5f3e3d5ffd5b505050506040513d5f823e601f3d908101601f191682016040526101819190810190610874565b905080515f0361018f575f5ffd5b5f5f828060200190518101906101a59190610928565b9097509550909250905073ffffffffffffffffffffffffffffffffffffffff80831690891614610236576040517f08c379a000000000000000000000000000000000000000000000000000000000815260206004820152601760248201527f5468652073656e6465722073686f756c64206d6174636800000000000000000060448201526064015b60405180910390fd5b8673ffffffffffffffffffffffffffffffffffffffff168173ffffffffffffffffffffffffffffffffffffffff16146102cb576040517f08c379a000000000000000000000000000000000000000000000000000000000815260206004820152601960248201527f5468652072656365697665722073686f756c64206d6174636800000000000000604482015260640161022d565b6040517f40c10f1900000000000000000000000000000000000000000000000000000000815273ffffffffffffffffffffffffffffffffffffffff8881166004830152602482018690528616906340c10f19906044015f604051808303815f87803b158015610338575f5ffd5b505af115801561034a573d5f5f3e3d5ffd5b5050505060405160200161038f9060208082526002908201527f4f4b000000000000000000000000000000000000000000000000000000000000604082015260600190565b60408051601f19818403018152908290525f547fcf80ca9a00000000000000000000000000000000000000000000000000000000835290945073ffffffffffffffffffffffffffffffffffffffff169063cf80ca9a906103f9908c908b908b9089906004016109a6565b5f604051808303815f87803b158015610410575f5ffd5b505af1158015610422573d5f5f3e3d5ffd5b505050505050509550959350505050565b73ffffffffffffffffffffffffffffffffffffffff841633146104b2576040517f08c379a000000000000000000000000000000000000000000000000000000000815260206004820152601960248201527f53686f756c6420626520746865207265616c2073656e64657200000000000000604482015260640161022d565b6040517f9dc29fac00000000000000000000000000000000000000000000000000000000815273ffffffffffffffffffffffffffffffffffffffff858116600483015260248201849052861690639dc29fac906044015f604051808303815f87803b15801561051f575f5ffd5b505af1158015610531573d5f5f3e3d5ffd5b50506040805173ffffffffffffffffffffffffffffffffffffffff888116602083015287811682840152898116606083015260808083018890528351808403909101815260a08301938490525f547fcf80ca9a00000000000000000000000000000000000000000000000000000000909452945091909116915063cf80ca9a906105c5908b9088908790879060a401610a27565b5f604051808303815f87803b1580156105dc575f5ffd5b505af11580156105ee573d5f5f3e3d5ffd5b505050507f56217dea5af710bf0dc0a6c43e858f0eebf2aab53e7a16a2c364da75c405f5f3816040516106219190610a8b565b60405180910390a15f80546040517f93ab0ed400000000000000000000000000000000000000000000000000000000815273ffffffffffffffffffffffffffffffffffffffff909116906393ab0ed490610685908b908a908a908990600401610aa4565b5f60405180830381865afa15801561069f573d5f5f3e3d5ffd5b505050506040513d5f823e601f3d908101601f191682016040526106c69190810190610874565b905080515f036106d4575f5ffd5b505050505050505050565b73ffffffffffffffffffffffffffffffffffffffff81168114610700575f5ffd5b50565b5f5f5f5f5f60a08688031215610717575f5ffd5b85359450602086013593506040860135610730816106df565b92506060860135610740816106df565b949793965091946080013592915050565b5f5f5f5f5f5f5f60e0888a031215610767575f5ffd5b87359650602088013595506040880135610780816106df565b94506060880135610790816106df565b935060808801356107a0816106df565b9699959850939692959460a0840135945060c09093013592915050565b84815273ffffffffffffffffffffffffffffffffffffffff8416602082015273ffffffffffffffffffffffffffffffffffffffff8316604082015281606082015260a060808201525f61083d60a08301600481527f53454e4400000000000000000000000000000000000000000000000000000000602082015260400190565b9695505050505050565b7f4e487b71000000000000000000000000000000000000000000000000000000005f52604160045260245ffd5b5f60208284031215610884575f5ffd5b815167ffffffffffffffff81111561089a575f5ffd5b8201601f810184136108aa575f5ffd5b805167ffffffffffffffff8111156108c4576108c4610847565b604051601f19603f601f19601f8501160116810181811067ffffffffffffffff821117156108f4576108f4610847565b60405281815282820160200186101561090b575f5ffd5b8160208401602083015e5f91810160200191909152949350505050565b5f5f5f5f6080858703121561093b575f5ffd5b8451610946816106df565b6020860151909450610957816106df565b6040860151909350610968816106df565b6060959095015193969295505050565b5f81518084528060208401602086015e5f602082860101526020601f19601f83011685010191505092915050565b84815273ffffffffffffffffffffffffffffffffffffffff8416602082015282604082015260a060608201525f610a0a60a08301600881527f41434b2053454e44000000000000000000000000000000000000000000000000602082015260400190565b8281036080840152610a1c8185610978565b979650505050505050565b84815273ffffffffffffffffffffffffffffffffffffffff8416602082015282604082015260a060608201525f610a0a60a08301600481527f53454e4400000000000000000000000000000000000000000000000000000000602082015260400190565b602081525f610a9d6020830184610978565b9392505050565b84815273ffffffffffffffffffffffffffffffffffffffff8416602082015273ffffffffffffffffffffffffffffffffffffffff8316604082015281606082015260a060808201525f61083d60a08301600881527f41434b2053454e4400000000000000000000000000000000000000000000000060208201526040019056fea26469706673582212204d3a8a55a76f6b361ba714daf6f45c3b2e745f1caaf6c496f19fafde92ac105464736f6c634300081e0033","linkReferences":{}},"methodIdentifiers":{"mailbox()":"d5438eae","receiveTokens(uint256,uint256,address,address,uint256)":"3cd28eb9","send(uint256,uint256,address,address,address,uint256,uint256)":"9489e65e"},"id":28}