{"abi":[{"type":"constructor","inputs":[{"name":"_coordinator","type":"address","internalType":"address"},{"name":"_chainId","type":"uint256","internalType":"uint256"}],"stateMutability":"nonpayable"},{"type":"function","name":"chainId","inputs":[],"outputs":[{"name":"","type":"uint256","internalType":"uint256"}],"stateMutability":"view"},{"type":"function","name":"clear","inputs":[],"outputs":[],"stateMutability":"nonpayable"},{"type":"function","name":"coordinator","inputs":[],"outputs":[{"name":"","type":"address","internalType":"address"}],"stateMutability":"view"},{"type":"function","name":"createdKeys","inputs":[{"name":"key","type":"bytes32","internalType":"bytes32"}],"outputs":[{"name":"used","type":"bool","internalType":"bool"}],"stateMutability":"view"},{"type":"function","name":"getKey","inputs":[{"name":"chainSrc","type":"uint256","internalType":"uint256"},{"name":"chainDest","type":"uint256","internalType":"uint256"},{"name":"sender","type":"address","internalType":"address"},{"name":"receiver","type":"address","internalType":"address"},{"name":"sessionId","type":"uint256","internalType":"uint256"},{"name":"label","type":"bytes","internalType":"bytes"}],"outputs":[{"name":"key","type":"bytes32","internalType":"bytes32"}],"stateMutability":"pure"},{"type":"function","name":"inbox","inputs":[{"name":"key","type":"bytes32","internalType":"bytes32"}],"outputs":[{"name":"message","type":"bytes","internalType":"bytes"}],"stateMutability":"view"},{"type":"function","name":"inboxRoot","inputs":[],"outputs":[{"name":"","type":"bytes32","internalType":"bytes32"}],"stateMutability":"view"},{"type":"function","name":"keyListInbox","inputs":[{"name":"","type":"uint256","internalType":"uint256"}],"outputs":[{"name":"","type":"bytes32","internalType":"bytes32"}],"stateMutability":"view"},{"type":"function","name":"keyListOutbox","inputs":[{"name":"","type":"uint256","internalType":"uint256"}],"outputs":[{"name":"","type":"bytes32","internalType":"bytes32"}],"stateMutability":"view"},{"type":"function","name":"outbox","inputs":[{"name":"key","type":"bytes32","internalType":"bytes32"}],"outputs":[{"name":"message","type":"bytes","internalType":"bytes"}],"stateMutability":"view"},{"type":"function","name":"outboxRoot","inputs":[],"outputs":[{"name":"","type":"bytes32","internalType":"bytes32"}],"stateMutability":"view"},{"type":"function","name":"putInbox","inputs":[{"name":"chainSrc","type":"uint256","internalType":"uint256"},{"name":"sender","type":"address","internalType":"address"},{"name":"receiver","type":"address","internalType":"address"},{"name":"sessionId","type":"uint256","internalType":"uint256"},{"name":"label","type":"bytes","internalType":"bytes"},{"name":"data","type":"bytes","internalType":"bytes"}],"outputs":[],"stateMutability":"nonpayable"},{"type":"function","name":"read","inputs":[{"name":"chainSrc","type":"uint256","internalType":"uint256"},{"name":"sender","type":"address","internalType":"address"},{"name":"receiver","type":"address","internalType":"address"},{"name":"sessionId","type":"uint256","internalType":"uint256"},{"name":"label","type":"bytes","internalType":"bytes"}],"outputs":[{"name":"message","type":"bytes","internalType":"bytes"}],"stateMutability":"view"},{"type":"function","name":"write","inputs":[{"name":"chainDest","type":"uint256","internalType":"uint256"},{"name":"receiver","type":"address","internalType":"address"},{"name":"sessionId","type":"uint256","internalType":"uint256"},{"name":"label","type":"bytes","internalType":"bytes"},{"name":"data","type":"bytes","internalType":"bytes"}],"outputs":[],"stateMutability":"nonpayable"},{"type":"error","name":"InvalidCoordinator","inputs":[]},{"type":"error","name":"MessageNotFound","inputs":[]}],"bytecode":{"object":"0x6080604052348015600e575f5ffd5b50604051610ec4380380610ec4833981016040819052602b916052565b5f80546001600160a01b0319166001600160a01b0393909316929092179091556001556087565b5f5f604083850312156062575f5ffd5b82516001600160a01b03811681146077575f5ffd5b6020939093015192949293505050565b610e30806100945f395ff3fe608060405234801561000f575f5ffd5b50600436106100e5575f3560e01c8063880e3a3a11610088578063bd36237411610063578063bd362374146101f0578063cf80ca9a14610203578063e35d4fcf14610216578063f227304414610229575f5ffd5b8063880e3a3a146101cb57806393ab0ed4146101d45780639a8a0592146101e7575f5ffd5b8063523ce242116100c3578063523ce2421461018557806352efea6e146101a557806356b506f1146101af57806385ac5433146101b8575f5ffd5b806309dcbc59146100e95780630a0090971461010f578063253de6c714610153575b5f5ffd5b6100fc6100f7366004610839565b61023c565b6040519081526020015b60405180910390f35b5f5461012e9073ffffffffffffffffffffffffffffffffffffffff1681565b60405173ffffffffffffffffffffffffffffffffffffffff9091168152602001610106565b610175610161366004610839565b60046020525f908152604090205460ff1681565b6040519015158152602001610106565b610198610193366004610839565b61025b565b6040516101069190610850565b6101ad6102f2565b005b6100fc60075481565b6101ad6101c6366004610910565b610401565b6100fc60085481565b6101986101e23660046109b2565b610548565b6100fc60015481565b6101986101fe366004610839565b61066d565b6101ad610211366004610a25565b610685565b6100fc610224366004610ab7565b610780565b6100fc610237366004610839565b6107c1565b6006818154811061024b575f80fd5b5f91825260209091200154905081565b60036020525f90815260409020805461027390610b14565b80601f016020809104026020016040519081016040528092919081815260200182805461029f90610b14565b80156102ea5780601f106102c1576101008083540402835291602001916102ea565b820191905f5260205f20905b8154815290600101906020018083116102cd57829003601f168201915b505050505081565b5f5473ffffffffffffffffffffffffffffffffffffffff163314610342576040517f6188839700000000000000000000000000000000000000000000000000000000815260040160405180910390fd5b5f5b600554811015610390575f6005828154811061036257610362610b65565b5f918252602080832090910154808352600290915260408220909250610387916107d0565b50600101610344565b505f5b6006548110156103df575f600682815481106103b1576103b1610b65565b5f9182526020808320909101548083526003909152604082209092506103d6916107d0565b50600101610393565b506103eb60055f61080a565b6103f660065f61080a565b5f6007819055600855565b5f5473ffffffffffffffffffffffffffffffffffffffff163314610451576040517f6188839700000000000000000000000000000000000000000000000000000000815260040160405180910390fd5b5f610463896001548a8a8a8a8a610780565b5f81815260026020526040902090915061047e838583610c0b565b505f81815260046020908152604080832080547fffffffffffffffffffffffffffffffffffffffffffffffffffffffffffffff001660019081179091556005805491820181559093527f036b6384b5eca791c62761152d0c79bb0604c104a5fb6f4eb0703f3154bb3db09092018390556007549151610504929184918791879101610d21565b604080517fffffffffffffffffffffffffffffffffffffffffffffffffffffffffffffffe08184030181529190528051602090910120600755505050505050505050565b60605f61055c886001548989898989610780565b5f81815260026020526040902080549192509061057890610b14565b159050801561059557505f8181526004602052604090205460ff16155b156105cc576040517f28915ac700000000000000000000000000000000000000000000000000000000815260040160405180910390fd5b5f81815260026020526040902080546105e490610b14565b80601f016020809104026020016040519081016040528092919081815260200182805461061090610b14565b801561065b5780601f106106325761010080835404028352916020019161065b565b820191905f5260205f20905b81548152906001019060200180831161063e57829003601f168201915b50505050509150509695505050505050565b60026020525f90815260409020805461027390610b14565b60015433905f61069a828b858c8c8c8c610780565b5f8181526003602052604090209091506106b5858783610c0b565b505f81815260046020908152604080832080547fffffffffffffffffffffffffffffffffffffffffffffffffffffffffffffff001660019081179091556006805491820181559093527ff652222313e28459528d920b65115c16c04f3efc82aaedc97be59f3f377c0d3f909201839055600854915161073b929184918991899101610d21565b604080517fffffffffffffffffffffffffffffffffffffffffffffffffffffffffffffffe0818403018152919052805160209091012060085550505050505050505050565b5f8787878787878760405160200161079e9796959493929190610d7b565b604051602081830303815290604052805190602001209050979650505050505050565b6005818154811061024b575f80fd5b5080546107dc90610b14565b5f825580601f106107eb575050565b601f0160209004905f5260205f20908101906108079190610821565b50565b5080545f8255905f5260205f209081019061080791905b5b80821115610835575f8155600101610822565b5090565b5f60208284031215610849575f5ffd5b5035919050565b602081525f82518060208401528060208501604085015e5f6040828501015260407fffffffffffffffffffffffffffffffffffffffffffffffffffffffffffffffe0601f83011684010191505092915050565b803573ffffffffffffffffffffffffffffffffffffffff811681146108c6575f5ffd5b919050565b5f5f83601f8401126108db575f5ffd5b50813567ffffffffffffffff8111156108f2575f5ffd5b602083019150836020828501011115610909575f5ffd5b9250929050565b5f5f5f5f5f5f5f5f60c0898b031215610927575f5ffd5b8835975061093760208a016108a3565b965061094560408a016108a3565b955060608901359450608089013567ffffffffffffffff811115610967575f5ffd5b6109738b828c016108cb565b90955093505060a089013567ffffffffffffffff811115610992575f5ffd5b61099e8b828c016108cb565b999c989b5096995094979396929594505050565b5f5f5f5f5f5f60a087890312156109c7575f5ffd5b863595506109d7602088016108a3565b94506109e5604088016108a3565b935060608701359250608087013567ffffffffffffffff811115610a07575f5ffd5b610a1389828a016108cb565b979a9699509497509295939492505050565b5f5f5f5f5f5f5f60a0888a031215610a3b575f5ffd5b87359650610a4b602089016108a3565b955060408801359450606088013567ffffffffffffffff811115610a6d575f5ffd5b610a798a828b016108cb565b909550935050608088013567ffffffffffffffff811115610a98575f5ffd5b610aa48a828b016108cb565b989b979a50959850939692959293505050565b5f5f5f5f5f5f5f60c0888a031215610acd575f5ffd5b8735965060208801359550610ae4604089016108a3565b9450610af2606089016108a3565b93506080880135925060a088013567ffffffffffffffff811115610a98575f5ffd5b600181811c90821680610b2857607f821691505b602082108103610b5f577f4e487b71000000000000000000000000000000000000000000000000000000005f52602260045260245ffd5b50919050565b7f4e487b71000000000000000000000000000000000000000000000000000000005f52603260045260245ffd5b7f4e487b71000000000000000000000000000000000000000000000000000000005f52604160045260245ffd5b601f821115610c0657805f5260205f20601f840160051c81016020851015610be45750805b601f840160051c820191505b81811015610c03575f8155600101610bf0565b50505b505050565b67ffffffffffffffff831115610c2357610c23610b92565b610c3783610c318354610b14565b83610bbf565b5f601f841160018114610c87575f8515610c515750838201355b7fffffffffffffffffffffffffffffffffffffffffffffffffffffffffffffffff600387901b1c1916600186901b178355610c03565b5f838152602081207fffffffffffffffffffffffffffffffffffffffffffffffffffffffffffffffe08716915b82811015610cd45786850135825560209485019460019092019101610cb4565b5086821015610d0f577fffffffffffffffffffffffffffffffffffffffffffffffffffffffffffffffff60f88860031b161c19848701351681555b505060018560011b0183555050505050565b84815283602082015260606040820152816060820152818360808301375f818301608090810191909152601f9092017fffffffffffffffffffffffffffffffffffffffffffffffffffffffffffffffe01601019392505050565b8781528660208201527fffffffffffffffffffffffffffffffffffffffff0000000000000000000000008660601b1660408201527fffffffffffffffffffffffffffffffffffffffff0000000000000000000000008560601b166054820152836068820152818360888301375f9101608801908152969550505050505056fea264697066735822122084a1a30c4603e182d2da020e0fc492eaec730bad912241f2958ce683bee2a2cc64736f6c634300081e0033","linkReferences":{}},"methodIdentifiers":{"chainId()":"9a8a0592","clear()":"52efea6e","coordinator()":"0a009097","createdKeys(bytes32)":"253de6c7","getKey(uint256,uint256,address,address,uint256,bytes)":"e35d4fcf","inbox(bytes32)":"bd362374","inboxRoot()":"56b506f1","keyListInbox(uint256)":"f2273044","keyListOutbox(uint256)":"09dcbc59","outbox(bytes32)":"523ce242","outboxRoot()":"880e3a3a","putInbox(uint256,address,address,uint256,bytes,bytes)":"85ac5433","read(uint256,address,address,uint256,bytes)":"93ab0ed4","write(uint256,address,uint256,bytes,bytes)":"cf80ca9a"},"id":29}