{"abi":[{"type":"constructor","inputs":[{"name":"_mailbox","type":"address","internalType":"address"}],"stateMutability":"nonpayable"},{"type":"function","name":"mailbox","inputs":[],"outputs":[{"name":"","type":"address","internalType":"contract IMailbox"}],"stateMutability":"view"},{"type":"function","name":"ping","inputs":[{"name":"chainSrc","type":"uint256","internalType":"uint256"},{"name":"chainDest","type":"uint256","internalType":"uint256"},{"name":"sender","type":"address","internalType":"address"},{"name":"receiver","type":"address","internalType":"address"},{"name":"sessionId","type":"uint256","internalType":"uint256"},{"name":"data","type":"bytes","internalType":"bytes"}],"outputs":[{"name":"pongMessage","type":"bytes","internalType":"bytes"}],"stateMutability":"nonpayable"},{"type":"function","name":"pong","inputs":[{"name":"chainSrc","type":"uint256","internalType":"uint256"},{"name":"chainDest","type":"uint256","internalType":"uint256"},{"name":"sender","type":"address","internalType":"address"},{"name":"receiver","type":"address","internalType":"address"},{"name":"sessionId","type":"uint256","internalType":"uint256"},{"name":"data","type":"bytes","internalType":"bytes"}],"outputs":[{"name":"pingMessage","type":"bytes","internalType":"bytes"}],"stateMutability":"nonpayable"},{"type":"error","name":"PingMessageEmpty","inputs":[]},{"type":"error","name":"PongMessageEmpty","inputs":[]}],"bytecode":{"object":"0x6080604052348015600e575f5ffd5b5060405161085e38038061085e833981016040819052602b91604e565b5f80546001600160a01b0319166001600160a01b03929092169190911790556079565b5f60208284031215605d575f5ffd5b81516001600160a01b03811681146072575f5ffd5b9392505050565b6107d8806100865f395ff3fe608060405234801561000f575f5ffd5b506004361061003f575f3560e01c80634f30c27814610043578063c7dadef61461006c578063d5438eae1461007f575b5f5ffd5b6100566100513660046103c7565b6100c3565b6040516100639190610472565b60405180910390f35b61005661007a3660046103c7565b610231565b5f5461009e9073ffffffffffffffffffffffffffffffffffffffff1681565b60405173ffffffffffffffffffffffffffffffffffffffff9091168152602001610063565b5f546040517fcf80ca9a00000000000000000000000000000000000000000000000000000000815260609173ffffffffffffffffffffffffffffffffffffffff169063cf80ca9a90610121908b9089908990899089906004016104d0565b5f604051808303815f87803b158015610138575f5ffd5b505af115801561014a573d5f5f3e3d5ffd5b50505f546040517f93ab0ed400000000000000000000000000000000000000000000000000000000815273ffffffffffffffffffffffffffffffffffffffff90911692506393ab0ed491506101a9908b908a908a908a90600401610553565b5f60405180830381865afa1580156101c3573d5f5f3e3d5ffd5b505050506040513d5f823e601f3d908101601f191682016040526101ea919081019061060a565b905080515f03610226576040517f2487e87c00000000000000000000000000000000000000000000000000000000815260040160405180910390fd5b979650505050505050565b5f546040517f93ab0ed400000000000000000000000000000000000000000000000000000000815260609173ffffffffffffffffffffffffffffffffffffffff16906393ab0ed49061028d908b908a908a908a906004016106be565b5f60405180830381865afa1580156102a7573d5f5f3e3d5ffd5b505050506040513d5f823e601f3d908101601f191682016040526102ce919081019061060a565b905080515f0361030a576040517f3399328100000000000000000000000000000000000000000000000000000000815260040160405180910390fd5b5f546040517fcf80ca9a00000000000000000000000000000000000000000000000000000000815273ffffffffffffffffffffffffffffffffffffffff9091169063cf80ca9a90610367908a90899089908990899060040161073e565b5f604051808303815f87803b15801561037e575f5ffd5b505af1158015610390573d5f5f3e3d5ffd5b50505050979650505050505050565b803573ffffffffffffffffffffffffffffffffffffffff811681146103c2575f5ffd5b919050565b5f5f5f5f5f5f5f60c0888a0312156103dd575f5ffd5b87359650602088013595506103f46040890161039f565b94506104026060890161039f565b93506080880135925060a088013567ffffffffffffffff811115610424575f5ffd5b8801601f81018a13610434575f5ffd5b803567ffffffffffffffff81111561044a575f5ffd5b8a602082840101111561045b575f5ffd5b602082019350809250505092959891949750929550565b602081525f82518060208401528060208501604085015e5f604082850101526040601f19601f83011684010191505092915050565b81835281816020850137505f602082840101525f6020601f19601f840116840101905092915050565b85815273ffffffffffffffffffffffffffffffffffffffff8516602082015283604082015260a060608201525f61053460a08301600481527f50494e4700000000000000000000000000000000000000000000000000000000602082015260400190565b82810360808401526105478185876104a7565b98975050505050505050565b84815273ffffffffffffffffffffffffffffffffffffffff8416602082015273ffffffffffffffffffffffffffffffffffffffff8316604082015281606082015260a060808201525f6105d360a08301600481527f504f4e4700000000000000000000000000000000000000000000000000000000602082015260400190565b9695505050505050565b7f4e487b71000000000000000000000000000000000000000000000000000000005f52604160045260245ffd5b5f6020828403121561061a575f5ffd5b815167ffffffffffffffff811115610630575f5ffd5b8201601f81018413610640575f5ffd5b805167ffffffffffffffff81111561065a5761065a6105dd565b604051601f19603f601f19601f8501160116810181811067ffffffffffffffff8211171561068a5761068a6105dd565b6040528181528282016020018610156106a1575f5ffd5b8160208401602083015e5f91810160200191909152949350505050565b84815273ffffffffffffffffffffffffffffffffffffffff8416602082015273ffffffffffffffffffffffffffffffffffffffff8316604082015281606082015260a060808201525f6105d360a08301600481527f50494e4700000000000000000000000000000000000000000000000000000000602082015260400190565b85815273ffffffffffffffffffffffffffffffffffffffff8516602082015283604082015260a060608201525f61053460a08301600481527f504f4e470000000000000000000000000000000000000000000000000000000060208201526040019056fea2646970667358221220c7fd1a658e48ad01467faefdc87ac973a4fd9fca213dd3adc3101011af1ca20864736f6c634300081e0033","linkReferences":{}},"methodIdentifiers":{"mailbox()":"d5438eae","ping(uint256,uint256,address,address,uint256,bytes)":"4f30c278","pong(uint256,uint256,address,address,uint256,bytes)":"c7dadef6"},"id":30}